{
  "transactions": [
    {
      "hash": "0xbe2feae66ebf16ab93b2a6e5b5356a749ab795923d7e513e15c61ce971a5e343",
      "transactionType": "CALL",
      "contractName": null,
      "contractAddress": "0x9c192037b3eda88cb4b31ab1ad2aad43df352e43",
      "function": "setFeeRecipient(address)",
      "arguments": [
        "0x46Cd74Aac482cf6CE9eaAa0418AEB2Ae71E2FAc5"
      ],
      "transaction": {
        "from": "0x2f85a7ef3947a257211e04cced0efded94f76e98",
        "to": "0x9c192037b3eda88cb4b31ab1ad2aad43df352e43",
        "gas": "0xb2e3",
        "value": "0x0",
        "input": "0xe74b981b00000000000000000000000046cd74aac482cf6ce9eaaa0418aeb2ae71e2fac5",
        "nonce": "0x16",
        "chainId": "0x8173"
      },
      "additionalContracts": [],
      "isFixedGasLimit": false
    }
  ],
  "receipts": [
    {
      "status": "0x1",
      "cumulativeGasUsed": "0x7a61",
      "logs": [
        {
          "address": "0x9c192037b3eda88cb4b31ab1ad2aad43df352e43",
          "topics": [
            "0xaaebcf1bfa00580e41d966056b48521fa9f202645c86d4ddf28113e617c1b1d3",
            "0x0000000000000000000000002f85a7ef3947a257211e04cced0efded94f76e98",
            "0x00000000000000000000000046cd74aac482cf6ce9eaaa0418aeb2ae71e2fac5"
          ],
          "data": "0x",
          "blockHash": "0x0d5435fea9764cc3b97d327bbd7f982fbd4332ac7eeb28732956c772843b7986",
          "blockNumber": "0x174b3f8",
          "transactionHash": "0xbe2feae66ebf16ab93b2a6e5b5356a749ab795923d7e513e15c61ce971a5e343",
          "transactionIndex": "0x1",
          "logIndex": "0x0",
          "removed": false
        }
      ],
      "logsBloom": "0x00000000000000000000000000000000000000000000000000000000000000000800000000000000000000000000000000000000000000000000000000000000000000000000000000000000000000000000000000000000000000000000000080000000010000000000000000000000000000000000000000000000000000080000000000000000000000000000000000020020000000000000000000000000000000000000000000000000000000000000080000000002000000000000000000000000000000001004000000001000000000000000000000000000000000000000000008000000000000000000000000000000000000000000000000000000",
      "type": "0x0",
      "transactionHash": "0xbe2feae66ebf16ab93b2a6e5b5356a749ab795923d7e513e15c61ce971a5e343",
      "transactionIndex": "0x1",
      "blockHash": "0x0d5435fea9764cc3b97d327bbd7f982fbd4332ac7eeb28732956c772843b7986",
      "blockNumber": "0x174b3f8",
      "gasUsed": "0x7a61",
      "effectiveGasPrice": "0x5eb30f250",
      "from": "0x2f85a7ef3947a257211e04cced0efded94f76e98",
      "to": "0x9c192037b3eda88cb4b31ab1ad2aad43df352e43",
      "contractAddress": null,
      "gasUsedForL1": "0x10",
      "l1BlockNumber": "0x1664318"
    }
  ],
  "libraries": [],
  "pending": [],
  "returns": {},
  "timestamp": 1759274670242,
  "chain": 33139,
  "commit": "8304e71"
}