{
  "transactions": [
    {
      "hash": "0x04888337411a0fb7e619b1ed2f1f86e1a13dd3cfc25a4ebc0dd08ce3b4d83cb9",
      "transactionType": "CALL",
      "contractName": null,
      "contractAddress": "0x5f942b20b8aa905b8f6a46ae226e7f6bf2f44023",
      "function": "grantRole(bytes32,address)",
      "arguments": [
        "0x9f2df0fed2c77648de5860a4cc508cd0818c85b8b8a1ab4ceeef8d981c8956a6",
        "0x9C192037b3EDa88cB4B31Ab1ad2AAD43Df352E43"
      ],
      "transaction": {
        "from": "0x2f85a7ef3947a257211e04cced0efded94f76e98",
        "to": "0x5f942b20b8aa905b8f6a46ae226e7f6bf2f44023",
        "gas": "0x118b0",
        "value": "0x0",
        "input": "0x2f2ff15d9f2df0fed2c77648de5860a4cc508cd0818c85b8b8a1ab4ceeef8d981c8956a60000000000000000000000009c192037b3eda88cb4b31ab1ad2aad43df352e43",
        "nonce": "0x17",
        "chainId": "0x8173"
      },
      "additionalContracts": [],
      "isFixedGasLimit": false
    }
  ],
  "receipts": [
    {
      "status": "0x1",
      "cumulativeGasUsed": "0xcb4b",
      "logs": [
        {
          "address": "0x5f942b20b8aa905b8f6a46ae226e7f6bf2f44023",
          "topics": [
            "0x2f8788117e7eff1d82e926ec794901d17c78024a50270940304540a733656f0d",
            "0x9f2df0fed2c77648de5860a4cc508cd0818c85b8b8a1ab4ceeef8d981c8956a6",
            "0x0000000000000000000000009c192037b3eda88cb4b31ab1ad2aad43df352e43",
            "0x0000000000000000000000002f85a7ef3947a257211e04cced0efded94f76e98"
          ],
          "data": "0x",
          "blockHash": "0x2ef54f853b9cd108b88e778c0f284c7020b275c3b412dfbc904f432a73e3576b",
          "blockNumber": "0x174b6b9",
          "transactionHash": "0x04888337411a0fb7e619b1ed2f1f86e1a13dd3cfc25a4ebc0dd08ce3b4d83cb9",
          "transactionIndex": "0x1",
          "logIndex": "0x0",
          "removed": false
        }
      ],
      "logsBloom": "0x00000004000000000000000800000000000040000000000020000000000000000000000000000000000000000000004000000000000000000000000000000000000000000000000000000000000000000000000000000000000004000000000080000000000000000000000000000000000000000000000000000000001000000000000000000000000000000000000000000000000000000000000000000000000000000000000000000000000000000000000000000002001000000000000000000000000000000004000000000000001000000000008100400000000000000000000000000000000000000000000000000000000000000000000000000000",
      "type": "0x0",
      "transactionHash": "0x04888337411a0fb7e619b1ed2f1f86e1a13dd3cfc25a4ebc0dd08ce3b4d83cb9",
      "transactionIndex": "0x1",
      "blockHash": "0x2ef54f853b9cd108b88e778c0f284c7020b275c3b412dfbc904f432a73e3576b",
      "blockNumber": "0x174b6b9",
      "gasUsed": "0xcb4b",
      "effectiveGasPrice": "0x5eb30f250",
      "from": "0x2f85a7ef3947a257211e04cced0efded94f76e98",
      "to": "0x5f942b20b8aa905b8f6a46ae226e7f6bf2f44023",
      "contractAddress": null,
      "gasUsedForL1": "0x14",
      "l1BlockNumber": "0x16643af"
    }
  ],
  "libraries": [],
  "pending": [],
  "returns": {},
  "timestamp": 1759276492855,
  "chain": 33139,
  "commit": "8d88854"
}