{
  "transactions": [
    {
      "hash": "0x87b4b671c0774ee8e0e0710aa0f1ceec0356dbce6c5bb6d98245aa995dcccada",
      "transactionType": "CALL",
      "contractName": null,
      "contractAddress": "0x5883d7a4a1b503ced7c799baf3d677a23093e564",
      "function": "setFeeRecipient(address)",
      "arguments": [
        "0x46Cd74Aac482cf6CE9eaAa0418AEB2Ae71E2FAc5"
      ],
      "transaction": {
        "from": "0x2f85a7ef3947a257211e04cced0efded94f76e98",
        "to": "0x5883d7a4a1b503ced7c799baf3d677a23093e564",
        "gas": "0xa2e4",
        "value": "0x0",
        "input": "0xe74b981b00000000000000000000000046cd74aac482cf6ce9eaaa0418aeb2ae71e2fac5",
        "nonce": "0x1b",
        "chainId": "0x8157"
      },
      "additionalContracts": [],
      "isFixedGasLimit": false
    }
  ],
  "receipts": [
    {
      "status": "0x1",
      "cumulativeGasUsed": "0x6f61",
      "logs": [
        {
          "address": "0x5883d7a4a1b503ced7c799baf3d677a23093e564",
          "topics": [
            "0xaaebcf1bfa00580e41d966056b48521fa9f202645c86d4ddf28113e617c1b1d3",
            "0x00000000000000000000000046cd74aac482cf6ce9eaaa0418aeb2ae71e2fac5",
            "0x00000000000000000000000046cd74aac482cf6ce9eaaa0418aeb2ae71e2fac5"
          ],
          "data": "0x",
          "blockHash": "0x51f022c7bcbcd0472658ed1223ef15512f47651f547b736e337d9da0c0429a69",
          "blockNumber": "0x1ba99d0",
          "transactionHash": "0x87b4b671c0774ee8e0e0710aa0f1ceec0356dbce6c5bb6d98245aa995dcccada",
          "transactionIndex": "0x1",
          "logIndex": "0x0",
          "removed": false
        }
      ],
      "logsBloom": "0x00000000000000000000000000000000000000000000000000000000004000000800000000000000000000000000000000000000000000000000000000000000000000000000000000000000000000000000000000000000000000000000000000008000000000000000000000000000000000000000000000000000000000080000000000000000000000000000000000020000000000000000000000000000000000000000000000000000000000000000000000000000000000000000000000000000000000001000000000001000000000000000000000000000000000000000000008000000040000000000000000000000000000000000000000000000",
      "type": "0x2",
      "transactionHash": "0x87b4b671c0774ee8e0e0710aa0f1ceec0356dbce6c5bb6d98245aa995dcccada",
      "transactionIndex": "0x1",
      "blockHash": "0x51f022c7bcbcd0472658ed1223ef15512f47651f547b736e337d9da0c0429a69",
      "blockNumber": "0x1ba99d0",
      "gasUsed": "0x6f61",
      "effectiveGasPrice": "0x989680",
      "from": "0x2f85a7ef3947a257211e04cced0efded94f76e98",
      "to": "0x5883d7a4a1b503ced7c799baf3d677a23093e564",
      "contractAddress": null,
      "gasUsedForL1": "0x0",
      "l1BlockNumber": "0x8de8b8"
    }
  ],
  "libraries": [],
  "pending": [],
  "returns": {},
  "timestamp": 1759085648880,
  "chain": 33111,
  "commit": "641cf0d"
}