{
  "transactions": [
    {
      "hash": "0x4d7cf0835fab0d39dc3f9d40e3299671e8e716496f1923db6aeeab16e1dd7d88",
      "transactionType": "CALL",
      "contractName": null,
      "contractAddress": "0x9c192037b3eda88cb4b31ab1ad2aad43df352e43",
      "function": "setRewardTable(uint256[16])",
      "arguments": [
        "[128000000000000000000, 120000000000000000000, 112000000000000000000, 104000000000000000000, 96000000000000000000, 88000000000000000000, 80000000000000000000, 72000000000000000000, 64000000000000000000, 56000000000000000000, 48000000000000000000, 40000000000000000000, 32000000000000000000, 24000000000000000000, 16000000000000000000, 8000000000000000000]"
      ],
      "transaction": {
        "from": "0x2f85a7ef3947a257211e04cced0efded94f76e98",
        "to": "0x9c192037b3eda88cb4b31ab1ad2aad43df352e43",
        "gas": "0x26564",
        "value": "0x0",
        "input": "0xbf820041000000000000000000000000000000000000000000000006f05b59d3b20000000000000000000000000000000000000000000000000000068155a43676e00000000000000000000000000000000000000000000000000006124fee993bc00000000000000000000000000000000000000000000000000005a34a38fc00a000000000000000000000000000000000000000000000000000053444835ec5800000000000000000000000000000000000000000000000000004c53ecdc18a600000000000000000000000000000000000000000000000000004563918244f400000000000000000000000000000000000000000000000000003e733628714200000000000000000000000000000000000000000000000000003782dace9d90000000000000000000000000000000000000000000000000000030927f74c9de000000000000000000000000000000000000000000000000000029a2241af62c000000000000000000000000000000000000000000000000000022b1c8c1227a00000000000000000000000000000000000000000000000000001bc16d674ec8000000000000000000000000000000000000000000000000000014d1120d7b1600000000000000000000000000000000000000000000000000000de0b6b3a764000000000000000000000000000000000000000000000000000006f05b59d3b200000",
        "nonce": "0x404",
        "chainId": "0x8173"
      },
      "additionalContracts": [],
      "isFixedGasLimit": false
    }
  ],
  "receipts": [
    {
      "status": "0x1",
      "cumulativeGasUsed": "0x1bc3f",
      "logs": [
        {
          "address": "0x9c192037b3eda88cb4b31ab1ad2aad43df352e43",
          "topics": [
            "0xca42eb6d3bb939c02be9af7e5f9379d3b6b2883d43d64aa3d7321b275624e522"
          ],
          "data": "0x000000000000000000000000000000000000000000000006f05b59d3b20000000000000000000000000000000000000000000000000000068155a43676e00000000000000000000000000000000000000000000000000006124fee993bc00000000000000000000000000000000000000000000000000005a34a38fc00a000000000000000000000000000000000000000000000000000053444835ec5800000000000000000000000000000000000000000000000000004c53ecdc18a600000000000000000000000000000000000000000000000000004563918244f400000000000000000000000000000000000000000000000000003e733628714200000000000000000000000000000000000000000000000000003782dace9d90000000000000000000000000000000000000000000000000000030927f74c9de000000000000000000000000000000000000000000000000000029a2241af62c000000000000000000000000000000000000000000000000000022b1c8c1227a00000000000000000000000000000000000000000000000000001bc16d674ec8000000000000000000000000000000000000000000000000000014d1120d7b1600000000000000000000000000000000000000000000000000000de0b6b3a764000000000000000000000000000000000000000000000000000006f05b59d3b200000",
          "blockHash": "0x758547aeb5b35b330ea0e33b9a83ec458ebd87d9124619c850887d5b20f50e6d",
          "blockNumber": "0x176490c",
          "transactionHash": "0x4d7cf0835fab0d39dc3f9d40e3299671e8e716496f1923db6aeeab16e1dd7d88",
          "transactionIndex": "0x1",
          "logIndex": "0x0",
          "removed": false
        }
      ],
      "logsBloom": "0x00000000000000000000000000000000000000000000000004000000000000000000000000000000000000000000000000000000000000000000000000000000000000000000000000000000000000000000000000000000000000000000000000000000010000000000000000000000000000000000000000000000000000000000000000000000000000000000000000000020000000000000000000000000000000000000000000000000000000000000080000000000000000000000000000000000000000000010000000000000000000000000000000000000040000000000000000000000000000000000000000000000000000000000000000000000",
      "type": "0x2",
      "transactionHash": "0x4d7cf0835fab0d39dc3f9d40e3299671e8e716496f1923db6aeeab16e1dd7d88",
      "transactionIndex": "0x1",
      "blockHash": "0x758547aeb5b35b330ea0e33b9a83ec458ebd87d9124619c850887d5b20f50e6d",
      "blockNumber": "0x176490c",
      "gasUsed": "0x1bc3f",
      "effectiveGasPrice": "0x5eb30f250",
      "from": "0x2f85a7ef3947a257211e04cced0efded94f76e98",
      "to": "0x9c192037b3eda88cb4b31ab1ad2aad43df352e43",
      "contractAddress": null,
      "gasUsedForL1": "0x29",
      "l1BlockNumber": "0x1667ed9"
    }
  ],
  "libraries": [],
  "pending": [],
  "returns": {},
  "timestamp": 1759459650545,
  "chain": 33139,
  "commit": "d38fdde"
}