{
  "transactions": [
    {
      "hash": "0xa4c86efbd11e0bf6701fd265c630dcfd501b636dd634ee73508a53c0fbf228aa",
      "transactionType": "CALL",
      "contractName": null,
      "contractAddress": "0xf808fc0a027e8f61c24580dda1a43afe3c088354",
      "function": "addFeeRecipient(address,uint256)",
      "arguments": [
        "0xFB53Da794d3d4d831255e7AB40F4649791331e75",
        "2500000000000000"
      ],
      "transaction": {
        "from": "0x2f85a7ef3947a257211e04cced0efded94f76e98",
        "to": "0xf808fc0a027e8f61c24580dda1a43afe3c088354",
        "gas": "0x271bf",
        "value": "0x0",
        "input": "0xbf60dc21000000000000000000000000fb53da794d3d4d831255e7ab40f4649791331e750000000000000000000000000000000000000000000000000008e1bc9bf04000",
        "nonce": "0x9fe",
        "chainId": "0x8173"
      },
      "additionalContracts": [],
      "isFixedGasLimit": false
    },
    {
      "hash": "0x26e319c7ff42843c114e952b41bfa2abb8936a1bfd9b4bbada20683db7f9fb45",
      "transactionType": "CALL",
      "contractName": null,
      "contractAddress": "0xf808fc0a027e8f61c24580dda1a43afe3c088354",
      "function": "addFeeRecipient(address,uint256)",
      "arguments": [
        "0x08AD425BA1D1fC4d69d88B56f7C6879B2E85b0C4",
        "5000000000000000"
      ],
      "transaction": {
        "from": "0x2f85a7ef3947a257211e04cced0efded94f76e98",
        "to": "0xf808fc0a027e8f61c24580dda1a43afe3c088354",
        "gas": "0x2157b",
        "value": "0x0",
        "input": "0xbf60dc2100000000000000000000000008ad425ba1d1fc4d69d88b56f7c6879b2e85b0c40000000000000000000000000000000000000000000000000011c37937e08000",
        "nonce": "0x9ff",
        "chainId": "0x8173"
      },
      "additionalContracts": [],
      "isFixedGasLimit": false
    },
    {
      "hash": "0xc1ff7a03d069634e92051cafef084f59699b6841bcc349b42479ba480bdb210e",
      "transactionType": "CALL",
      "contractName": null,
      "contractAddress": "0xf808fc0a027e8f61c24580dda1a43afe3c088354",
      "function": "addFeeRecipient(address,uint256)",
      "arguments": [
        "0x46Cd74Aac482cf6CE9eaAa0418AEB2Ae71E2FAc5",
        "1500000000000000"
      ],
      "transaction": {
        "from": "0x2f85a7ef3947a257211e04cced0efded94f76e98",
        "to": "0xf808fc0a027e8f61c24580dda1a43afe3c088354",
        "gas": "0x2157b",
        "value": "0x0",
        "input": "0xbf60dc2100000000000000000000000046cd74aac482cf6ce9eaaa0418aeb2ae71e2fac50000000000000000000000000000000000000000000000000005543df729c000",
        "nonce": "0xa00",
        "chainId": "0x8173"
      },
      "additionalContracts": [],
      "isFixedGasLimit": false
    },
    {
      "hash": "0x829c7455aff7d6d01cae463c7f17e03bf2dbe4d065c3380fd5bc454a878e3047",
      "transactionType": "CALL",
      "contractName": null,
      "contractAddress": "0xf808fc0a027e8f61c24580dda1a43afe3c088354",
      "function": "addFeeRecipient(address,uint256)",
      "arguments": [
        "0xB8bb2C7fDE8FfB6fe2B71d401E5DD2612Fc6A043",
        "1000000000000000"
      ],
      "transaction": {
        "from": "0x2f85a7ef3947a257211e04cced0efded94f76e98",
        "to": "0xf808fc0a027e8f61c24580dda1a43afe3c088354",
        "gas": "0x2157b",
        "value": "0x0",
        "input": "0xbf60dc21000000000000000000000000b8bb2c7fde8ffb6fe2b71d401e5dd2612fc6a04300000000000000000000000000000000000000000000000000038d7ea4c68000",
        "nonce": "0xa01",
        "chainId": "0x8173"
      },
      "additionalContracts": [],
      "isFixedGasLimit": false
    },
    {
      "hash": "0xe259f6589fc4f689101819e19231db80faf9a5d4de1f13af01507f20c0ddb54b",
      "transactionType": "CALL",
      "contractName": null,
      "contractAddress": "0xf808fc0a027e8f61c24580dda1a43afe3c088354",
      "function": "addMultiplier(address,uint256,uint256,string)",
      "arguments": [
        "0xFA1c20E0d4277b1E0b289DfFadb5Bd92Fb8486aA",
        "1",
        "12000",
        "NAPC"
      ],
      "transaction": {
        "from": "0x2f85a7ef3947a257211e04cced0efded94f76e98",
        "to": "0xf808fc0a027e8f61c24580dda1a43afe3c088354",
        "gas": "0x3719d",
        "value": "0x0",
        "input": "0x0698a93a000000000000000000000000fa1c20e0d4277b1e0b289dffadb5bd92fb8486aa00000000000000000000000000000000000000000000000000000000000000010000000000000000000000000000000000000000000000000000000000002ee0000000000000000000000000000000000000000000000000000000000000008000000000000000000000000000000000000000000000000000000000000000044e41504300000000000000000000000000000000000000000000000000000000",
        "nonce": "0xa02",
        "chainId": "0x8173"
      },
      "additionalContracts": [],
      "isFixedGasLimit": false
    },
    {
      "hash": "0x4764d6b7241b7073791b6f9f47a889bed082a71aafcb28940d138cb318daef23",
      "transactionType": "CALL",
      "contractName": null,
      "contractAddress": "0xf808fc0a027e8f61c24580dda1a43afe3c088354",
      "function": "addMultiplier(address,uint256,uint256,string)",
      "arguments": [
        "0xFA1c20E0d4277b1E0b289DfFadb5Bd92Fb8486aA",
        "10",
        "15000",
        "NAPC Whale"
      ],
      "transaction": {
        "from": "0x2f85a7ef3947a257211e04cced0efded94f76e98",
        "to": "0xf808fc0a027e8f61c24580dda1a43afe3c088354",
        "gas": "0x34431",
        "value": "0x0",
        "input": "0x0698a93a000000000000000000000000fa1c20e0d4277b1e0b289dffadb5bd92fb8486aa000000000000000000000000000000000000000000000000000000000000000a0000000000000000000000000000000000000000000000000000000000003a980000000000000000000000000000000000000000000000000000000000000080000000000000000000000000000000000000000000000000000000000000000a4e415043205768616c6500000000000000000000000000000000000000000000",
        "nonce": "0xa03",
        "chainId": "0x8173"
      },
      "additionalContracts": [],
      "isFixedGasLimit": false
    },
    {
      "hash": "0x10ce928caf7e7d1167a9ed301a9def69a94c720cea4c6c24f0ddfebbbeda19aa",
      "transactionType": "CALL",
      "contractName": null,
      "contractAddress": "0xf808fc0a027e8f61c24580dda1a43afe3c088354",
      "function": "setCartridgeAllowed(address,bool)",
      "arguments": [
        "0x3322b37349AeFD6F50F7909B641f2177c1D34D25",
        "true"
      ],
      "transaction": {
        "from": "0x2f85a7ef3947a257211e04cced0efded94f76e98",
        "to": "0xf808fc0a027e8f61c24580dda1a43afe3c088354",
        "gas": "0x11578",
        "value": "0x0",
        "input": "0x7ba591130000000000000000000000003322b37349aefd6f50f7909b641f2177c1d34d250000000000000000000000000000000000000000000000000000000000000001",
        "nonce": "0xa04",
        "chainId": "0x8173"
      },
      "additionalContracts": [],
      "isFixedGasLimit": false
    },
    {
      "hash": "0xcc5b917eafb05714c06fcc345dab6fb6765aab575a04a2f0a2567e1edd94938a",
      "transactionType": "CALL",
      "contractName": null,
      "contractAddress": "0xf808fc0a027e8f61c24580dda1a43afe3c088354",
      "function": "setCartridgeAllowed(address,bool)",
      "arguments": [
        "0xCA2D7B429248A38b276c8293506f3bE8E1FC2C2d",
        "true"
      ],
      "transaction": {
        "from": "0x2f85a7ef3947a257211e04cced0efded94f76e98",
        "to": "0xf808fc0a027e8f61c24580dda1a43afe3c088354",
        "gas": "0x11578",
        "value": "0x0",
        "input": "0x7ba59113000000000000000000000000ca2d7b429248a38b276c8293506f3be8e1fc2c2d0000000000000000000000000000000000000000000000000000000000000001",
        "nonce": "0xa05",
        "chainId": "0x8173"
      },
      "additionalContracts": [],
      "isFixedGasLimit": false
    }
  ],
  "receipts": [
    {
      "status": "0x1",
      "cumulativeGasUsed": "0x1c51c",
      "logs": [
        {
          "address": "0xf808fc0a027e8f61c24580dda1a43afe3c088354",
          "topics": [
            "0x8aaef994f5203be9a87983abf5d93dc87b987130a4a25f55e8b1c405a011cba4",
            "0x0000000000000000000000000000000000000000000000000000000000000000"
          ],
          "data": "0x000000000000000000000000fb53da794d3d4d831255e7ab40f4649791331e750000000000000000000000000000000000000000000000000008e1bc9bf04000",
          "blockHash": "0xb24fcabba60c17ad0492f07e7b3d6376e020beee3ba12811efaa56049dd324ca",
          "blockNumber": "0x177b432",
          "transactionHash": "0xa4c86efbd11e0bf6701fd265c630dcfd501b636dd634ee73508a53c0fbf228aa",
          "transactionIndex": "0x1",
          "logIndex": "0x0",
          "removed": false
        }
      ],
      "logsBloom": "0x00000000000000000000000000000000000000000000000000000000000000000000000000000000000020000000000000000000000000000000000000000000000000000000000000000000000000000000000000000000000000000000000000000000020000000000000000000a00080000000000000000000000000000000000000000000000000000000000000000000000000000000000002000000002000000000000000000000000000000000000000000000000000200000000000000000000000000000000000000000000000000000000000000000000000020000000000000000000000000000000000000000000000000000000000000000000",
      "type": "0x0",
      "transactionHash": "0xa4c86efbd11e0bf6701fd265c630dcfd501b636dd634ee73508a53c0fbf228aa",
      "transactionIndex": "0x1",
      "blockHash": "0xb24fcabba60c17ad0492f07e7b3d6376e020beee3ba12811efaa56049dd324ca",
      "blockNumber": "0x177b432",
      "gasUsed": "0x1c51c",
      "effectiveGasPrice": "0x5eb30f250",
      "from": "0x2f85a7ef3947a257211e04cced0efded94f76e98",
      "to": "0xf808fc0a027e8f61c24580dda1a43afe3c088354",
      "contractAddress": null,
      "gasUsedForL1": "0x14",
      "l1BlockNumber": "0x166ac15"
    },
    {
      "status": "0x1",
      "cumulativeGasUsed": "0x3476c",
      "logs": [
        {
          "address": "0xf808fc0a027e8f61c24580dda1a43afe3c088354",
          "topics": [
            "0x8aaef994f5203be9a87983abf5d93dc87b987130a4a25f55e8b1c405a011cba4",
            "0x0000000000000000000000000000000000000000000000000000000000000001"
          ],
          "data": "0x00000000000000000000000008ad425ba1d1fc4d69d88b56f7c6879b2e85b0c40000000000000000000000000000000000000000000000000011c37937e08000",
          "blockHash": "0xb24fcabba60c17ad0492f07e7b3d6376e020beee3ba12811efaa56049dd324ca",
          "blockNumber": "0x177b432",
          "transactionHash": "0x26e319c7ff42843c114e952b41bfa2abb8936a1bfd9b4bbada20683db7f9fb45",
          "transactionIndex": "0x2",
          "logIndex": "0x1",
          "removed": false
        }
      ],
      "logsBloom": "0x00000000000000000000000000000000000000000000000000000000000000000000000000000000000020000000000000000000000000000000000000040000000000000000000000000000000000000000000000040000000000000000000000000000000000000000000000000200080000000000000000000000000000000000000000000000000000000000000000000000000000000000002000000002000000000000000000000000000000000000000000000000000200000000000000000000000000000000000000000000000000000000000000000000000040000000000000000000000000000000000000000000000000000000000000000000",
      "type": "0x0",
      "transactionHash": "0x26e319c7ff42843c114e952b41bfa2abb8936a1bfd9b4bbada20683db7f9fb45",
      "transactionIndex": "0x2",
      "blockHash": "0xb24fcabba60c17ad0492f07e7b3d6376e020beee3ba12811efaa56049dd324ca",
      "blockNumber": "0x177b432",
      "gasUsed": "0x18250",
      "effectiveGasPrice": "0x5eb30f250",
      "from": "0x2f85a7ef3947a257211e04cced0efded94f76e98",
      "to": "0xf808fc0a027e8f61c24580dda1a43afe3c088354",
      "contractAddress": null,
      "gasUsedForL1": "0x14",
      "l1BlockNumber": "0x166ac15"
    },
    {
      "status": "0x1",
      "cumulativeGasUsed": "0x18250",
      "logs": [
        {
          "address": "0xf808fc0a027e8f61c24580dda1a43afe3c088354",
          "topics": [
            "0x8aaef994f5203be9a87983abf5d93dc87b987130a4a25f55e8b1c405a011cba4",
            "0x0000000000000000000000000000000000000000000000000000000000000002"
          ],
          "data": "0x00000000000000000000000046cd74aac482cf6ce9eaaa0418aeb2ae71e2fac50000000000000000000000000000000000000000000000000005543df729c000",
          "blockHash": "0x7230f7ccbbf63683b05351aa4305107e3c246a7d0dcc1f5cd0762f4184cd35e1",
          "blockNumber": "0x177b433",
          "transactionHash": "0xc1ff7a03d069634e92051cafef084f59699b6841bcc349b42479ba480bdb210e",
          "transactionIndex": "0x1",
          "logIndex": "0x0",
          "removed": false
        }
      ],
      "logsBloom": "0x04000000000000000000000000000000000000000000000000000000000000000000000000000000000020000000000000000000000000000000000000000000000000000000000000000000000000000000000000000000000000000000000000000000000000000000000000000200080000000000000000000000000000000000000000000000000000000000000000000000000000000000002000000002000000000000000000000100000000000000000000000000000200000000000000000000000000000000000000000000000000000000000000000000000000000000000000000000000000000000000000000000008000000000000000000000",
      "type": "0x0",
      "transactionHash": "0xc1ff7a03d069634e92051cafef084f59699b6841bcc349b42479ba480bdb210e",
      "transactionIndex": "0x1",
      "blockHash": "0x7230f7ccbbf63683b05351aa4305107e3c246a7d0dcc1f5cd0762f4184cd35e1",
      "blockNumber": "0x177b433",
      "gasUsed": "0x18250",
      "effectiveGasPrice": "0x5eb30f250",
      "from": "0x2f85a7ef3947a257211e04cced0efded94f76e98",
      "to": "0xf808fc0a027e8f61c24580dda1a43afe3c088354",
      "contractAddress": null,
      "gasUsedForL1": "0x14",
      "l1BlockNumber": "0x166ac15"
    },
    {
      "status": "0x1",
      "cumulativeGasUsed": "0x304a0",
      "logs": [
        {
          "address": "0xf808fc0a027e8f61c24580dda1a43afe3c088354",
          "topics": [
            "0x8aaef994f5203be9a87983abf5d93dc87b987130a4a25f55e8b1c405a011cba4",
            "0x0000000000000000000000000000000000000000000000000000000000000003"
          ],
          "data": "0x000000000000000000000000b8bb2c7fde8ffb6fe2b71d401e5dd2612fc6a04300000000000000000000000000000000000000000000000000038d7ea4c68000",
          "blockHash": "0x7230f7ccbbf63683b05351aa4305107e3c246a7d0dcc1f5cd0762f4184cd35e1",
          "blockNumber": "0x177b433",
          "transactionHash": "0x829c7455aff7d6d01cae463c7f17e03bf2dbe4d065c3380fd5bc454a878e3047",
          "transactionIndex": "0x2",
          "logIndex": "0x1",
          "removed": false
        }
      ],
      "logsBloom": "0x00000000000000000000000000000000000000000000000000000000000000000000000000000000000020000000000000000000020000000000000000000000000000000000000000000000000000000000000000000000000000000000000000000000000000000000000000000200080000000000000000000000000000000000000000000000000000000000000000000000000000000000002000000002000000000000000000000000000000000000000000800000000200000000400000000000000000000000000000000000000000000000000000000000000000000000000000000000000000000000000000000000000000000000000000000000",
      "type": "0x0",
      "transactionHash": "0x829c7455aff7d6d01cae463c7f17e03bf2dbe4d065c3380fd5bc454a878e3047",
      "transactionIndex": "0x2",
      "blockHash": "0x7230f7ccbbf63683b05351aa4305107e3c246a7d0dcc1f5cd0762f4184cd35e1",
      "blockNumber": "0x177b433",
      "gasUsed": "0x18250",
      "effectiveGasPrice": "0x5eb30f250",
      "from": "0x2f85a7ef3947a257211e04cced0efded94f76e98",
      "to": "0xf808fc0a027e8f61c24580dda1a43afe3c088354",
      "contractAddress": null,
      "gasUsedForL1": "0x14",
      "l1BlockNumber": "0x166ac15"
    },
    {
      "status": "0x1",
      "cumulativeGasUsed": "0x58303",
      "logs": [
        {
          "address": "0xf808fc0a027e8f61c24580dda1a43afe3c088354",
          "topics": [
            "0xfbe8ef664aa5143eea37fff53d5c2cd99d61516e668471fa582d5ff9e3e27e5e",
            "0x0000000000000000000000000000000000000000000000000000000000000000"
          ],
          "data": "0x000000000000000000000000fa1c20e0d4277b1e0b289dffadb5bd92fb8486aa00000000000000000000000000000000000000000000000000000000000000010000000000000000000000000000000000000000000000000000000000002ee0000000000000000000000000000000000000000000000000000000000000008000000000000000000000000000000000000000000000000000000000000000044e41504300000000000000000000000000000000000000000000000000000000",
          "blockHash": "0x7230f7ccbbf63683b05351aa4305107e3c246a7d0dcc1f5cd0762f4184cd35e1",
          "blockNumber": "0x177b433",
          "transactionHash": "0xe259f6589fc4f689101819e19231db80faf9a5d4de1f13af01507f20c0ddb54b",
          "transactionIndex": "0x3",
          "logIndex": "0x2",
          "removed": false
        }
      ],
      "logsBloom": "0x00000000000000000000000000000000000000000000000000000000001000000000000000000401000020000000000000000000000000000000000000000000000000000000000000000000000000000000000000000000000000000000000000000000020000000000000000000800000000000000000000000000000000000000000000000000000000000000000000000000000000000000002000000002000000000000000000000000000000000000000000000000000000000000000000000000000000000000000000000000000000000000000000000000000020000000000000000000000000000000000000000000000000000000000000000000",
      "type": "0x0",
      "transactionHash": "0xe259f6589fc4f689101819e19231db80faf9a5d4de1f13af01507f20c0ddb54b",
      "transactionIndex": "0x3",
      "blockHash": "0x7230f7ccbbf63683b05351aa4305107e3c246a7d0dcc1f5cd0762f4184cd35e1",
      "blockNumber": "0x177b433",
      "gasUsed": "0x27e63",
      "effectiveGasPrice": "0x5eb30f250",
      "from": "0x2f85a7ef3947a257211e04cced0efded94f76e98",
      "to": "0xf808fc0a027e8f61c24580dda1a43afe3c088354",
      "contractAddress": null,
      "gasUsedForL1": "0x1d",
      "l1BlockNumber": "0x166ac15"
    },
    {
      "status": "0x1",
      "cumulativeGasUsed": "0x7bee2",
      "logs": [
        {
          "address": "0xf808fc0a027e8f61c24580dda1a43afe3c088354",
          "topics": [
            "0xfbe8ef664aa5143eea37fff53d5c2cd99d61516e668471fa582d5ff9e3e27e5e",
            "0x0000000000000000000000000000000000000000000000000000000000000001"
          ],
          "data": "0x000000000000000000000000fa1c20e0d4277b1e0b289dffadb5bd92fb8486aa000000000000000000000000000000000000000000000000000000000000000a0000000000000000000000000000000000000000000000000000000000003a980000000000000000000000000000000000000000000000000000000000000080000000000000000000000000000000000000000000000000000000000000000a4e415043205768616c6500000000000000000000000000000000000000000000",
          "blockHash": "0x7230f7ccbbf63683b05351aa4305107e3c246a7d0dcc1f5cd0762f4184cd35e1",
          "blockNumber": "0x177b433",
          "transactionHash": "0x4764d6b7241b7073791b6f9f47a889bed082a71aafcb28940d138cb318daef23",
          "transactionIndex": "0x4",
          "logIndex": "0x3",
          "removed": false
        }
      ],
      "logsBloom": "0x00000000000000000000000000000000000000000000000000000000001000000000000000000401000020000000000000000000000000000000000000040000000000000000000000000000000000000000000000040000000000000000000000000000000000000000000000000000000000000000000000000000000000000000000000000000000000000000000000000000000000000000002000000002000000000000000000000000000000000000000000000000000000000000000000000000000000000000000000000000000000000000000000000000000040000000000000000000000000000000000000000000000000000000000000000000",
      "type": "0x0",
      "transactionHash": "0x4764d6b7241b7073791b6f9f47a889bed082a71aafcb28940d138cb318daef23",
      "transactionIndex": "0x4",
      "blockHash": "0x7230f7ccbbf63683b05351aa4305107e3c246a7d0dcc1f5cd0762f4184cd35e1",
      "blockNumber": "0x177b433",
      "gasUsed": "0x23bdf",
      "effectiveGasPrice": "0x5eb30f250",
      "from": "0x2f85a7ef3947a257211e04cced0efded94f76e98",
      "to": "0xf808fc0a027e8f61c24580dda1a43afe3c088354",
      "contractAddress": null,
      "gasUsedForL1": "0x1d",
      "l1BlockNumber": "0x166ac15"
    },
    {
      "status": "0x1",
      "cumulativeGasUsed": "0x87caf",
      "logs": [
        {
          "address": "0xf808fc0a027e8f61c24580dda1a43afe3c088354",
          "topics": [
            "0x6bf06bbb3fc7b7c491fa26191df6b851df9eefcdc8be822ee4e7be18547b905a",
            "0x0000000000000000000000003322b37349aefd6f50f7909b641f2177c1d34d25"
          ],
          "data": "0x0000000000000000000000000000000000000000000000000000000000000001",
          "blockHash": "0x7230f7ccbbf63683b05351aa4305107e3c246a7d0dcc1f5cd0762f4184cd35e1",
          "blockNumber": "0x177b433",
          "transactionHash": "0x10ce928caf7e7d1167a9ed301a9def69a94c720cea4c6c24f0ddfebbbeda19aa",
          "transactionIndex": "0x5",
          "logIndex": "0x4",
          "removed": false
        }
      ],
      "logsBloom": "0x00000000000000000000000000000000000000000001000000000000000000080000001000000000000020000000000000000040000000000000000000000000000000000000000000000000000000000020000000000000000000000000000000000000000000000000000000000000000000000000000000000000000000000000000000000000000000000040000000000000000000000000002000000002000000000000000000000000000000000000000000000000000000000000000000000000000000000000000000000000000000000000000000000000000000000000000000000000000000000000000000000000000000000000000000000000",
      "type": "0x0",
      "transactionHash": "0x10ce928caf7e7d1167a9ed301a9def69a94c720cea4c6c24f0ddfebbbeda19aa",
      "transactionIndex": "0x5",
      "blockHash": "0x7230f7ccbbf63683b05351aa4305107e3c246a7d0dcc1f5cd0762f4184cd35e1",
      "blockNumber": "0x177b433",
      "gasUsed": "0xbdcd",
      "effectiveGasPrice": "0x5eb30f250",
      "from": "0x2f85a7ef3947a257211e04cced0efded94f76e98",
      "to": "0xf808fc0a027e8f61c24580dda1a43afe3c088354",
      "contractAddress": null,
      "gasUsedForL1": "0x14",
      "l1BlockNumber": "0x166ac15"
    },
    {
      "status": "0x1",
      "cumulativeGasUsed": "0xbdcd",
      "logs": [
        {
          "address": "0xf808fc0a027e8f61c24580dda1a43afe3c088354",
          "topics": [
            "0x6bf06bbb3fc7b7c491fa26191df6b851df9eefcdc8be822ee4e7be18547b905a",
            "0x000000000000000000000000ca2d7b429248a38b276c8293506f3be8e1fc2c2d"
          ],
          "data": "0x0000000000000000000000000000000000000000000000000000000000000001",
          "blockHash": "0x8f9283849de92b5c7686ba9e6ed91d386808ce45444169fbb40aa125a3bae4ce",
          "blockNumber": "0x177b434",
          "transactionHash": "0xcc5b917eafb05714c06fcc345dab6fb6765aab575a04a2f0a2567e1edd94938a",
          "transactionIndex": "0x1",
          "logIndex": "0x0",
          "removed": false
        }
      ],
      "logsBloom": "0x00000000000000000000000000000000000000000000000000000000000000080000000000000000000020000000000000000040000000000000000000000000000000000000000000000000000000000000000000000000000000000000000000000000000000000000000000000000000000000000000000000000000000000000000000000000000000000040000000000000000000000000002000000002000000000000002000000000000000000000000000000000000000000000000000000100000000000000000000000000000000000000000000000000020000000000000000000000000000000000000000000000000000000000000000000000",
      "type": "0x0",
      "transactionHash": "0xcc5b917eafb05714c06fcc345dab6fb6765aab575a04a2f0a2567e1edd94938a",
      "transactionIndex": "0x1",
      "blockHash": "0x8f9283849de92b5c7686ba9e6ed91d386808ce45444169fbb40aa125a3bae4ce",
      "blockNumber": "0x177b434",
      "gasUsed": "0xbdcd",
      "effectiveGasPrice": "0x5eb30f250",
      "from": "0x2f85a7ef3947a257211e04cced0efded94f76e98",
      "to": "0xf808fc0a027e8f61c24580dda1a43afe3c088354",
      "contractAddress": null,
      "gasUsedForL1": "0x14",
      "l1BlockNumber": "0x166ac15"
    }
  ],
  "libraries": [],
  "pending": [],
  "returns": {},
  "timestamp": 1759599385935,
  "chain": 33139,
  "commit": "8c7c948"
}