{
  "transactions": [
    {
      "hash": "0x7d2784e0d08639bfdef80c9e5f35d45d64f40e4cb38e1792782720e2726991eb",
      "transactionType": "CALL",
      "contractName": null,
      "contractAddress": "0x9c192037b3eda88cb4b31ab1ad2aad43df352e43",
      "function": "setCartridgeAllowed(address,bool)",
      "arguments": [
        "0xCA2D7B429248A38b276c8293506f3bE8E1FC2C2d",
        "true"
      ],
      "transaction": {
        "from": "0x2f85a7ef3947a257211e04cced0efded94f76e98",
        "to": "0x9c192037b3eda88cb4b31ab1ad2aad43df352e43",
        "gas": "0x11557",
        "value": "0x0",
        "input": "0x7ba59113000000000000000000000000ca2d7b429248a38b276c8293506f3be8e1fc2c2d0000000000000000000000000000000000000000000000000000000000000001",
        "nonce": "0x14",
        "chainId": "0x8173"
      },
      "additionalContracts": [],
      "isFixedGasLimit": false
    }
  ],
  "receipts": [
    {
      "status": "0x1",
      "cumulativeGasUsed": "0xbdb7",
      "logs": [
        {
          "address": "0x9c192037b3eda88cb4b31ab1ad2aad43df352e43",
          "topics": [
            "0x6bf06bbb3fc7b7c491fa26191df6b851df9eefcdc8be822ee4e7be18547b905a",
            "0x000000000000000000000000ca2d7b429248a38b276c8293506f3be8e1fc2c2d"
          ],
          "data": "0x0000000000000000000000000000000000000000000000000000000000000001",
          "blockHash": "0x895d3030307726130af0ac8f3518d544b8b14160130e83fb13367b97e596a4f9",
          "blockNumber": "0x174a557",
          "transactionHash": "0x7d2784e0d08639bfdef80c9e5f35d45d64f40e4cb38e1792782720e2726991eb",
          "transactionIndex": "0x1",
          "logIndex": "0x0",
          "removed": false
        }
      ],
      "logsBloom": "0x00000000000000000000000000000000000000000000000000000000000000080000000000000000000000000000000000000040000000000000000000000000000000000000000000000000000000000000000000000000000000000000000000000000010000000000000000000000000000000000000000000000000000000000000000000000000000000040000000000020000000000000000000000000000000000000002000000000000000000000080000000000000000000000000000000100000000000000000000000000000000000000000000000000020000000000000000000000000000000000000000000000000000000000000000000000",
      "type": "0x2",
      "transactionHash": "0x7d2784e0d08639bfdef80c9e5f35d45d64f40e4cb38e1792782720e2726991eb",
      "transactionIndex": "0x1",
      "blockHash": "0x895d3030307726130af0ac8f3518d544b8b14160130e83fb13367b97e596a4f9",
      "blockNumber": "0x174a557",
      "gasUsed": "0xbdb7",
      "effectiveGasPrice": "0x5eb30f250",
      "from": "0x2f85a7ef3947a257211e04cced0efded94f76e98",
      "to": "0x9c192037b3eda88cb4b31ab1ad2aad43df352e43",
      "contractAddress": null,
      "gasUsedForL1": "0x14",
      "l1BlockNumber": "0x166402b"
    }
  ],
  "libraries": [],
  "pending": [],
  "returns": {},
  "timestamp": 1759265583898,
  "chain": 33139,
  "commit": "7d24eb2"
}