{
  "transactions": [
    {
      "hash": "0x778058be8c120f31ac821b2770fdcf20fa00455c98eae80664dac350335c06e6",
      "transactionType": "CALL",
      "contractName": null,
      "contractAddress": "0xca2d7b429248a38b276c8293506f3be8e1fc2c2d",
      "function": "setMaxSupply(uint256)",
      "arguments": [
        "500"
      ],
      "transaction": {
        "from": "0x2f85a7ef3947a257211e04cced0efded94f76e98",
        "to": "0xca2d7b429248a38b276c8293506f3be8e1fc2c2d",
        "gas": "0xb0a0",
        "value": "0x0",
        "input": "0x6f8b44b000000000000000000000000000000000000000000000000000000000000001f4",
        "nonce": "0x19",
        "chainId": "0x8173"
      },
      "additionalContracts": [],
      "isFixedGasLimit": false
    },
    {
      "hash": "0x087a476881cb79d4fa8dc49e24d51d83aab5e73a81c520bad71a7268d12e23a4",
      "transactionType": "CALL",
      "contractName": null,
      "contractAddress": "0xca2d7b429248a38b276c8293506f3be8e1fc2c2d",
      "function": "setMaxPerWallet(uint256)",
      "arguments": [
        "2"
      ],
      "transaction": {
        "from": "0x2f85a7ef3947a257211e04cced0efded94f76e98",
        "to": "0xca2d7b429248a38b276c8293506f3be8e1fc2c2d",
        "gas": "0xa39c",
        "value": "0x0",
        "input": "0xe268e4d30000000000000000000000000000000000000000000000000000000000000002",
        "nonce": "0x1a",
        "chainId": "0x8173"
      },
      "additionalContracts": [],
      "isFixedGasLimit": false
    }
  ],
  "receipts": [
    {
      "status": "0x1",
      "cumulativeGasUsed": "0x7ff0",
      "logs": [
        {
          "address": "0xca2d7b429248a38b276c8293506f3be8e1fc2c2d",
          "topics": [
            "0x7810bd47de260c3e9ee10061cf438099dd12256c79485f12f94dbccc981e806c"
          ],
          "data": "0x00000000000000000000000000000000000000000000000000000000000001f4",
          "blockHash": "0xfb141fef013df1afbdfa699b7fe318db4d1ddd034b10006f6fee7ae0e3a3f53d",
          "blockNumber": "0x1751440",
          "transactionHash": "0x778058be8c120f31ac821b2770fdcf20fa00455c98eae80664dac350335c06e6",
          "transactionIndex": "0x1",
          "logIndex": "0x0",
          "removed": false
        }
      ],
      "logsBloom": "0x00000000000000000000000000000000000000000000000000000000000000000000000000000000000000000000000080000000000000000000000000000000000000000000000000000000000000000000000000000000000000000000000000000000000000000000000000010000000000000000000000000004000000000000000000000000000000000000000000000000000000000000000000000000000000000000000000000000000000000000000000000000000000000000000000000000080000000000000000000000000000000000000000000000000000002000000000000000000000000000000010000000000000000000000000000000",
      "type": "0x2",
      "transactionHash": "0x778058be8c120f31ac821b2770fdcf20fa00455c98eae80664dac350335c06e6",
      "transactionIndex": "0x1",
      "blockHash": "0xfb141fef013df1afbdfa699b7fe318db4d1ddd034b10006f6fee7ae0e3a3f53d",
      "blockNumber": "0x1751440",
      "gasUsed": "0x7ff0",
      "effectiveGasPrice": "0x5eb30f250",
      "from": "0x2f85a7ef3947a257211e04cced0efded94f76e98",
      "to": "0xca2d7b429248a38b276c8293506f3be8e1fc2c2d",
      "contractAddress": null,
      "gasUsedForL1": "0x10",
      "l1BlockNumber": "0x1665588"
    },
    {
      "status": "0x1",
      "cumulativeGasUsed": "0x7684",
      "logs": [
        {
          "address": "0xca2d7b429248a38b276c8293506f3be8e1fc2c2d",
          "topics": [
            "0x97e4f91a4b7e108aff6d29a03d7b9f94705ad90ed51b377784a1943ea32257e7"
          ],
          "data": "0x0000000000000000000000000000000000000000000000000000000000000002",
          "blockHash": "0xbbf32c84006ad09851d953b0303de629a186b6e272473ea27a55660540646490",
          "blockNumber": "0x1751441",
          "transactionHash": "0x087a476881cb79d4fa8dc49e24d51d83aab5e73a81c520bad71a7268d12e23a4",
          "transactionIndex": "0x1",
          "logIndex": "0x0",
          "removed": false
        }
      ],
      "logsBloom": "0x00000000000000000000000000000000000000000000000000000000000000100000000000000000000000000000000000000000000000000000000000000000000000000000000000000000000000000000000000000000000000000000000000000000000000000000000000000000000000000000000000000000000000000000000000000000000000000000000000000020000000000000000000000000000000000000000000000000000000000000000000000000000000000000000000000000080000000000000000000000000000000000000000000000000000002000000000000000000000000000000010000000000000000010000000000000",
      "type": "0x2",
      "transactionHash": "0x087a476881cb79d4fa8dc49e24d51d83aab5e73a81c520bad71a7268d12e23a4",
      "transactionIndex": "0x1",
      "blockHash": "0xbbf32c84006ad09851d953b0303de629a186b6e272473ea27a55660540646490",
      "blockNumber": "0x1751441",
      "gasUsed": "0x7684",
      "effectiveGasPrice": "0x5eb30f250",
      "from": "0x2f85a7ef3947a257211e04cced0efded94f76e98",
      "to": "0xca2d7b429248a38b276c8293506f3be8e1fc2c2d",
      "contractAddress": null,
      "gasUsedForL1": "0x10",
      "l1BlockNumber": "0x1665588"
    }
  ],
  "libraries": [],
  "pending": [],
  "returns": {},
  "timestamp": 1759331795493,
  "chain": 33139,
  "commit": "dfafd7b"
}