{
  "transactions": [
    {
      "hash": "0x8a1a101c9c11943296575dc3a63dd56526752fc752191b534a8cd9a3a4688d20",
      "transactionType": "CALL",
      "contractName": null,
      "contractAddress": "0xca2d7b429248a38b276c8293506f3be8e1fc2c2d",
      "function": "setMaxSupply(uint256)",
      "arguments": [
        "5000"
      ],
      "transaction": {
        "from": "0x2f85a7ef3947a257211e04cced0efded94f76e98",
        "to": "0xca2d7b429248a38b276c8293506f3be8e1fc2c2d",
        "gas": "0xb0a0",
        "value": "0x0",
        "input": "0x6f8b44b00000000000000000000000000000000000000000000000000000000000001388",
        "nonce": "0x9e5",
        "chainId": "0x8173"
      },
      "additionalContracts": [],
      "isFixedGasLimit": false
    },
    {
      "hash": "0xfcd5eada477758feed576a189fb491cf580b60831f7f10ef501cd6b6b58b0ece",
      "transactionType": "CALL",
      "contractName": null,
      "contractAddress": "0xca2d7b429248a38b276c8293506f3be8e1fc2c2d",
      "function": "setMaxPerWallet(uint256)",
      "arguments": [
        "2"
      ],
      "transaction": {
        "from": "0x2f85a7ef3947a257211e04cced0efded94f76e98",
        "to": "0xca2d7b429248a38b276c8293506f3be8e1fc2c2d",
        "gas": "0x9481",
        "value": "0x0",
        "input": "0xe268e4d30000000000000000000000000000000000000000000000000000000000000002",
        "nonce": "0x9e6",
        "chainId": "0x8173"
      },
      "additionalContracts": [],
      "isFixedGasLimit": false
    }
  ],
  "receipts": [
    {
      "status": "0x1",
      "cumulativeGasUsed": "0x7ff0",
      "logs": [
        {
          "address": "0xca2d7b429248a38b276c8293506f3be8e1fc2c2d",
          "topics": [
            "0x7810bd47de260c3e9ee10061cf438099dd12256c79485f12f94dbccc981e806c"
          ],
          "data": "0x0000000000000000000000000000000000000000000000000000000000001388",
          "blockHash": "0x5f3f0bee304269a01658b57270cc682454a12e74a1167c7da272b2ded54f4174",
          "blockNumber": "0x176a1af",
          "transactionHash": "0x8a1a101c9c11943296575dc3a63dd56526752fc752191b534a8cd9a3a4688d20",
          "transactionIndex": "0x1",
          "logIndex": "0x0",
          "removed": false
        }
      ],
      "logsBloom": "0x00000000000000000000000000000000000000000000000000000000000000000000000000000000000000000000000080000000000000000000000000000000000000000000000000000000000000000000000000000000000000000000000000000000000000000000000000010000000000000000000000000004000000000000000000000000000000000000000000000000000000000000000000000000000000000000000000000000000000000000000000000000000000000000000000000000080000000000000000000000000000000000000000000000000000002000000000000000000000000000000010000000000000000000000000000000",
      "type": "0x2",
      "transactionHash": "0x8a1a101c9c11943296575dc3a63dd56526752fc752191b534a8cd9a3a4688d20",
      "transactionIndex": "0x1",
      "blockHash": "0x5f3f0bee304269a01658b57270cc682454a12e74a1167c7da272b2ded54f4174",
      "blockNumber": "0x176a1af",
      "gasUsed": "0x7ff0",
      "effectiveGasPrice": "0x5eb30f250",
      "from": "0x2f85a7ef3947a257211e04cced0efded94f76e98",
      "to": "0xca2d7b429248a38b276c8293506f3be8e1fc2c2d",
      "contractAddress": null,
      "gasUsedForL1": "0x10",
      "l1BlockNumber": "0x16689ef"
    },
    {
      "status": "0x1",
      "cumulativeGasUsed": "0x6b94",
      "logs": [
        {
          "address": "0xca2d7b429248a38b276c8293506f3be8e1fc2c2d",
          "topics": [
            "0x97e4f91a4b7e108aff6d29a03d7b9f94705ad90ed51b377784a1943ea32257e7"
          ],
          "data": "0x0000000000000000000000000000000000000000000000000000000000000002",
          "blockHash": "0x6205129445d975f65189fdd24ef15263a679432b2d0ef8bf7bf234f860e03612",
          "blockNumber": "0x176a1b1",
          "transactionHash": "0xfcd5eada477758feed576a189fb491cf580b60831f7f10ef501cd6b6b58b0ece",
          "transactionIndex": "0x1",
          "logIndex": "0x0",
          "removed": false
        }
      ],
      "logsBloom": "0x00000000000000000000000000000000000000000000000000000000000000100000000000000000000000000000000000000000000000000000000000000000000000000000000000000000000000000000000000000000000000000000000000000000000000000000000000000000000000000000000000000000000000000000000000000000000000000000000000000020000000000000000000000000000000000000000000000000000000000000000000000000000000000000000000000000080000000000000000000000000000000000000000000000000000002000000000000000000000000000000010000000000000000010000000000000",
      "type": "0x2",
      "transactionHash": "0xfcd5eada477758feed576a189fb491cf580b60831f7f10ef501cd6b6b58b0ece",
      "transactionIndex": "0x1",
      "blockHash": "0x6205129445d975f65189fdd24ef15263a679432b2d0ef8bf7bf234f860e03612",
      "blockNumber": "0x176a1b1",
      "gasUsed": "0x6b94",
      "effectiveGasPrice": "0x5eb30f250",
      "from": "0x2f85a7ef3947a257211e04cced0efded94f76e98",
      "to": "0xca2d7b429248a38b276c8293506f3be8e1fc2c2d",
      "contractAddress": null,
      "gasUsedForL1": "0x10",
      "l1BlockNumber": "0x16689ef"
    }
  ],
  "libraries": [],
  "pending": [],
  "returns": {},
  "timestamp": 1759493882453,
  "chain": 33139,
  "commit": "0ee4bef"
}