{
  "transactions": [
    {
      "hash": "0x3d41d9fd42f75d038d81e679fa6e82db83d10faa89fb8a990fe24cf7aa245491",
      "transactionType": "CALL",
      "contractName": null,
      "contractAddress": "0xca2d7b429248a38b276c8293506f3be8e1fc2c2d",
      "function": "setMaxSupply(uint256)",
      "arguments": [
        "1000"
      ],
      "transaction": {
        "from": "0x2f85a7ef3947a257211e04cced0efded94f76e98",
        "to": "0xca2d7b429248a38b276c8293506f3be8e1fc2c2d",
        "gas": "0xb0a0",
        "value": "0x0",
        "input": "0x6f8b44b000000000000000000000000000000000000000000000000000000000000003e8",
        "nonce": "0x308",
        "chainId": "0x8173"
      },
      "additionalContracts": [],
      "isFixedGasLimit": false
    },
    {
      "hash": "0xf2d4a214b076604974d86caacabd3fc4db778855fbbaf472bba368608f167f1d",
      "transactionType": "CALL",
      "contractName": null,
      "contractAddress": "0xca2d7b429248a38b276c8293506f3be8e1fc2c2d",
      "function": "setMaxPerWallet(uint256)",
      "arguments": [
        "2"
      ],
      "transaction": {
        "from": "0x2f85a7ef3947a257211e04cced0efded94f76e98",
        "to": "0xca2d7b429248a38b276c8293506f3be8e1fc2c2d",
        "gas": "0x9481",
        "value": "0x0",
        "input": "0xe268e4d30000000000000000000000000000000000000000000000000000000000000002",
        "nonce": "0x309",
        "chainId": "0x8173"
      },
      "additionalContracts": [],
      "isFixedGasLimit": false
    }
  ],
  "receipts": [
    {
      "status": "0x1",
      "cumulativeGasUsed": "0x7ff0",
      "logs": [
        {
          "address": "0xca2d7b429248a38b276c8293506f3be8e1fc2c2d",
          "topics": [
            "0x7810bd47de260c3e9ee10061cf438099dd12256c79485f12f94dbccc981e806c"
          ],
          "data": "0x00000000000000000000000000000000000000000000000000000000000003e8",
          "blockHash": "0x0c1741116f41fa2c5142faddc1e60ed0c5286862bea63324633739a6985da39a",
          "blockNumber": "0x175d173",
          "transactionHash": "0x3d41d9fd42f75d038d81e679fa6e82db83d10faa89fb8a990fe24cf7aa245491",
          "transactionIndex": "0x1",
          "logIndex": "0x0",
          "removed": false
        }
      ],
      "logsBloom": "0x00000000000000000000000000000000000000000000000000000000000000000000000000000000000000000000000080000000000000000000000000000000000000000000000000000000000000000000000000000000000000000000000000000000000000000000000000010000000000000000000000000004000000000000000000000000000000000000000000000000000000000000000000000000000000000000000000000000000000000000000000000000000000000000000000000000080000000000000000000000000000000000000000000000000000002000000000000000000000000000000010000000000000000000000000000000",
      "type": "0x0",
      "transactionHash": "0x3d41d9fd42f75d038d81e679fa6e82db83d10faa89fb8a990fe24cf7aa245491",
      "transactionIndex": "0x1",
      "blockHash": "0x0c1741116f41fa2c5142faddc1e60ed0c5286862bea63324633739a6985da39a",
      "blockNumber": "0x175d173",
      "gasUsed": "0x7ff0",
      "effectiveGasPrice": "0x5eb30f250",
      "from": "0x2f85a7ef3947a257211e04cced0efded94f76e98",
      "to": "0xca2d7b429248a38b276c8293506f3be8e1fc2c2d",
      "contractAddress": null,
      "gasUsedForL1": "0x10",
      "l1BlockNumber": "0x1666f2d"
    },
    {
      "status": "0x1",
      "cumulativeGasUsed": "0x6b94",
      "logs": [
        {
          "address": "0xca2d7b429248a38b276c8293506f3be8e1fc2c2d",
          "topics": [
            "0x97e4f91a4b7e108aff6d29a03d7b9f94705ad90ed51b377784a1943ea32257e7"
          ],
          "data": "0x0000000000000000000000000000000000000000000000000000000000000002",
          "blockHash": "0x80b4f3249a908e496b12832217d76fd69a6be3674bdef73063c710639f17fde5",
          "blockNumber": "0x175d175",
          "transactionHash": "0xf2d4a214b076604974d86caacabd3fc4db778855fbbaf472bba368608f167f1d",
          "transactionIndex": "0x1",
          "logIndex": "0x0",
          "removed": false
        }
      ],
      "logsBloom": "0x00000000000000000000000000000000000000000000000000000000000000100000000000000000000000000000000000000000000000000000000000000000000000000000000000000000000000000000000000000000000000000000000000000000000000000000000000000000000000000000000000000000000000000000000000000000000000000000000000000020000000000000000000000000000000000000000000000000000000000000000000000000000000000000000000000000080000000000000000000000000000000000000000000000000000002000000000000000000000000000000010000000000000000010000000000000",
      "type": "0x0",
      "transactionHash": "0xf2d4a214b076604974d86caacabd3fc4db778855fbbaf472bba368608f167f1d",
      "transactionIndex": "0x1",
      "blockHash": "0x80b4f3249a908e496b12832217d76fd69a6be3674bdef73063c710639f17fde5",
      "blockNumber": "0x175d175",
      "gasUsed": "0x6b94",
      "effectiveGasPrice": "0x5eb30f250",
      "from": "0x2f85a7ef3947a257211e04cced0efded94f76e98",
      "to": "0xca2d7b429248a38b276c8293506f3be8e1fc2c2d",
      "contractAddress": null,
      "gasUsedForL1": "0x10",
      "l1BlockNumber": "0x1666f2d"
    }
  ],
  "libraries": [],
  "pending": [],
  "returns": {},
  "timestamp": 1759411118295,
  "chain": 33139,
  "commit": "c4bad48"
}