{
  "transactions": [
    {
      "hash": "0x1c19f1cb23d5132289c5b233981f02cd66c1e1ff0dd9133f79d62d707620898e",
      "transactionType": "CALL",
      "contractName": null,
      "contractAddress": "0xca2d7b429248a38b276c8293506f3be8e1fc2c2d",
      "function": "setMaxSupply(uint256)",
      "arguments": [
        "1250"
      ],
      "transaction": {
        "from": "0x2f85a7ef3947a257211e04cced0efded94f76e98",
        "to": "0xca2d7b429248a38b276c8293506f3be8e1fc2c2d",
        "gas": "0xb0a0",
        "value": "0x0",
        "input": "0x6f8b44b000000000000000000000000000000000000000000000000000000000000004e2",
        "nonce": "0x405",
        "chainId": "0x8173"
      },
      "additionalContracts": [],
      "isFixedGasLimit": false
    },
    {
      "hash": "0x3c3d5665acd91737af6033f8639233e6b998f381288b181892bfdd5e8ed6fc3a",
      "transactionType": "CALL",
      "contractName": null,
      "contractAddress": "0xca2d7b429248a38b276c8293506f3be8e1fc2c2d",
      "function": "setMaxPerWallet(uint256)",
      "arguments": [
        "2"
      ],
      "transaction": {
        "from": "0x2f85a7ef3947a257211e04cced0efded94f76e98",
        "to": "0xca2d7b429248a38b276c8293506f3be8e1fc2c2d",
        "gas": "0x9481",
        "value": "0x0",
        "input": "0xe268e4d30000000000000000000000000000000000000000000000000000000000000002",
        "nonce": "0x406",
        "chainId": "0x8173"
      },
      "additionalContracts": [],
      "isFixedGasLimit": false
    }
  ],
  "receipts": [
    {
      "status": "0x1",
      "cumulativeGasUsed": "0x7ff0",
      "logs": [
        {
          "address": "0xca2d7b429248a38b276c8293506f3be8e1fc2c2d",
          "topics": [
            "0x7810bd47de260c3e9ee10061cf438099dd12256c79485f12f94dbccc981e806c"
          ],
          "data": "0x00000000000000000000000000000000000000000000000000000000000004e2",
          "blockHash": "0x484eae409160c1937c1e39780dbf0e536365efd1b23be1f1fd3ff22327f3fce6",
          "blockNumber": "0x1764edc",
          "transactionHash": "0x1c19f1cb23d5132289c5b233981f02cd66c1e1ff0dd9133f79d62d707620898e",
          "transactionIndex": "0x1",
          "logIndex": "0x0",
          "removed": false
        }
      ],
      "logsBloom": "0x00000000000000000000000000000000000000000000000000000000000000000000000000000000000000000000000080000000000000000000000000000000000000000000000000000000000000000000000000000000000000000000000000000000000000000000000000010000000000000000000000000004000000000000000000000000000000000000000000000000000000000000000000000000000000000000000000000000000000000000000000000000000000000000000000000000080000000000000000000000000000000000000000000000000000002000000000000000000000000000000010000000000000000000000000000000",
      "type": "0x2",
      "transactionHash": "0x1c19f1cb23d5132289c5b233981f02cd66c1e1ff0dd9133f79d62d707620898e",
      "transactionIndex": "0x1",
      "blockHash": "0x484eae409160c1937c1e39780dbf0e536365efd1b23be1f1fd3ff22327f3fce6",
      "blockNumber": "0x1764edc",
      "gasUsed": "0x7ff0",
      "effectiveGasPrice": "0x5eb30f250",
      "from": "0x2f85a7ef3947a257211e04cced0efded94f76e98",
      "to": "0xca2d7b429248a38b276c8293506f3be8e1fc2c2d",
      "contractAddress": null,
      "gasUsedForL1": "0x10",
      "l1BlockNumber": "0x1667f6c"
    },
    {
      "status": "0x1",
      "cumulativeGasUsed": "0xeb84",
      "logs": [
        {
          "address": "0xca2d7b429248a38b276c8293506f3be8e1fc2c2d",
          "topics": [
            "0x97e4f91a4b7e108aff6d29a03d7b9f94705ad90ed51b377784a1943ea32257e7"
          ],
          "data": "0x0000000000000000000000000000000000000000000000000000000000000002",
          "blockHash": "0x484eae409160c1937c1e39780dbf0e536365efd1b23be1f1fd3ff22327f3fce6",
          "blockNumber": "0x1764edc",
          "transactionHash": "0x3c3d5665acd91737af6033f8639233e6b998f381288b181892bfdd5e8ed6fc3a",
          "transactionIndex": "0x2",
          "logIndex": "0x1",
          "removed": false
        }
      ],
      "logsBloom": "0x00000000000000000000000000000000000000000000000000000000000000100000000000000000000000000000000000000000000000000000000000000000000000000000000000000000000000000000000000000000000000000000000000000000000000000000000000000000000000000000000000000000000000000000000000000000000000000000000000000020000000000000000000000000000000000000000000000000000000000000000000000000000000000000000000000000080000000000000000000000000000000000000000000000000000002000000000000000000000000000000010000000000000000010000000000000",
      "type": "0x2",
      "transactionHash": "0x3c3d5665acd91737af6033f8639233e6b998f381288b181892bfdd5e8ed6fc3a",
      "transactionIndex": "0x2",
      "blockHash": "0x484eae409160c1937c1e39780dbf0e536365efd1b23be1f1fd3ff22327f3fce6",
      "blockNumber": "0x1764edc",
      "gasUsed": "0x6b94",
      "effectiveGasPrice": "0x5eb30f250",
      "from": "0x2f85a7ef3947a257211e04cced0efded94f76e98",
      "to": "0xca2d7b429248a38b276c8293506f3be8e1fc2c2d",
      "contractAddress": null,
      "gasUsedForL1": "0x10",
      "l1BlockNumber": "0x1667f6c"
    }
  ],
  "libraries": [],
  "pending": [],
  "returns": {},
  "timestamp": 1759461447868,
  "chain": 33139,
  "commit": "8b2ffaf"
}