{
  "transactions": [
    {
      "hash": "0x272af28961f4ded1eed9318f627eb25d6bfc2b27d06afbd8a6c5c247714613aa",
      "transactionType": "CALL",
      "contractName": null,
      "contractAddress": "0xca2d7b429248a38b276c8293506f3be8e1fc2c2d",
      "function": "setMaxSupply(uint256)",
      "arguments": [
        "2500"
      ],
      "transaction": {
        "from": "0x2f85a7ef3947a257211e04cced0efded94f76e98",
        "to": "0xca2d7b429248a38b276c8293506f3be8e1fc2c2d",
        "gas": "0xb0a0",
        "value": "0x0",
        "input": "0x6f8b44b000000000000000000000000000000000000000000000000000000000000009c4",
        "nonce": "0x501",
        "chainId": "0x8173"
      },
      "additionalContracts": [],
      "isFixedGasLimit": false
    },
    {
      "hash": "0x17d7e7c7a1f733ee61aafeed190022aa1d6a8681ee455d783c1adc88d691d232",
      "transactionType": "CALL",
      "contractName": null,
      "contractAddress": "0xca2d7b429248a38b276c8293506f3be8e1fc2c2d",
      "function": "setMaxPerWallet(uint256)",
      "arguments": [
        "2"
      ],
      "transaction": {
        "from": "0x2f85a7ef3947a257211e04cced0efded94f76e98",
        "to": "0xca2d7b429248a38b276c8293506f3be8e1fc2c2d",
        "gas": "0x9481",
        "value": "0x0",
        "input": "0xe268e4d30000000000000000000000000000000000000000000000000000000000000002",
        "nonce": "0x502",
        "chainId": "0x8173"
      },
      "additionalContracts": [],
      "isFixedGasLimit": false
    }
  ],
  "receipts": [
    {
      "status": "0x1",
      "cumulativeGasUsed": "0x7ff0",
      "logs": [
        {
          "address": "0xca2d7b429248a38b276c8293506f3be8e1fc2c2d",
          "topics": [
            "0x7810bd47de260c3e9ee10061cf438099dd12256c79485f12f94dbccc981e806c"
          ],
          "data": "0x00000000000000000000000000000000000000000000000000000000000009c4",
          "blockHash": "0x90b69d7b81114229b79f2a0908922941827c745981403f794828b3505a020784",
          "blockNumber": "0x17688fb",
          "transactionHash": "0x272af28961f4ded1eed9318f627eb25d6bfc2b27d06afbd8a6c5c247714613aa",
          "transactionIndex": "0x1",
          "logIndex": "0x0",
          "removed": false
        }
      ],
      "logsBloom": "0x00000000000000000000000000000000000000000000000000000000000000000000000000000000000000000000000080000000000000000000000000000000000000000000000000000000000000000000000000000000000000000000000000000000000000000000000000010000000000000000000000000004000000000000000000000000000000000000000000000000000000000000000000000000000000000000000000000000000000000000000000000000000000000000000000000000080000000000000000000000000000000000000000000000000000002000000000000000000000000000000010000000000000000000000000000000",
      "type": "0x2",
      "transactionHash": "0x272af28961f4ded1eed9318f627eb25d6bfc2b27d06afbd8a6c5c247714613aa",
      "transactionIndex": "0x1",
      "blockHash": "0x90b69d7b81114229b79f2a0908922941827c745981403f794828b3505a020784",
      "blockNumber": "0x17688fb",
      "gasUsed": "0x7ff0",
      "effectiveGasPrice": "0x5eb30f250",
      "from": "0x2f85a7ef3947a257211e04cced0efded94f76e98",
      "to": "0xca2d7b429248a38b276c8293506f3be8e1fc2c2d",
      "contractAddress": null,
      "gasUsedForL1": "0x10",
      "l1BlockNumber": "0x166872c"
    },
    {
      "status": "0x1",
      "cumulativeGasUsed": "0x6b94",
      "logs": [
        {
          "address": "0xca2d7b429248a38b276c8293506f3be8e1fc2c2d",
          "topics": [
            "0x97e4f91a4b7e108aff6d29a03d7b9f94705ad90ed51b377784a1943ea32257e7"
          ],
          "data": "0x0000000000000000000000000000000000000000000000000000000000000002",
          "blockHash": "0xa58a14aa874e69470817c419ae5b3fe9d2be99754c2ebeb87bdbf72f7907100f",
          "blockNumber": "0x17688fd",
          "transactionHash": "0x17d7e7c7a1f733ee61aafeed190022aa1d6a8681ee455d783c1adc88d691d232",
          "transactionIndex": "0x1",
          "logIndex": "0x0",
          "removed": false
        }
      ],
      "logsBloom": "0x00000000000000000000000000000000000000000000000000000000000000100000000000000000000000000000000000000000000000000000000000000000000000000000000000000000000000000000000000000000000000000000000000000000000000000000000000000000000000000000000000000000000000000000000000000000000000000000000000000020000000000000000000000000000000000000000000000000000000000000000000000000000000000000000000000000080000000000000000000000000000000000000000000000000000002000000000000000000000000000000010000000000000000010000000000000",
      "type": "0x2",
      "transactionHash": "0x17d7e7c7a1f733ee61aafeed190022aa1d6a8681ee455d783c1adc88d691d232",
      "transactionIndex": "0x1",
      "blockHash": "0xa58a14aa874e69470817c419ae5b3fe9d2be99754c2ebeb87bdbf72f7907100f",
      "blockNumber": "0x17688fd",
      "gasUsed": "0x6b94",
      "effectiveGasPrice": "0x5eb30f250",
      "from": "0x2f85a7ef3947a257211e04cced0efded94f76e98",
      "to": "0xca2d7b429248a38b276c8293506f3be8e1fc2c2d",
      "contractAddress": null,
      "gasUsedForL1": "0x10",
      "l1BlockNumber": "0x166872c"
    }
  ],
  "libraries": [],
  "pending": [],
  "returns": {},
  "timestamp": 1759485340488,
  "chain": 33139,
  "commit": "df6c1d7"
}