{
  "transactions": [
    {
      "hash": "0x6420170c8934ed00252fce9ac9583e6cdb8b701db5575b5203d199d8e4069e91",
      "transactionType": "CALL",
      "contractName": null,
      "contractAddress": "0xca2d7b429248a38b276c8293506f3be8e1fc2c2d",
      "function": "setMaxSupply(uint256)",
      "arguments": [
        "750"
      ],
      "transaction": {
        "from": "0x2f85a7ef3947a257211e04cced0efded94f76e98",
        "to": "0xca2d7b429248a38b276c8293506f3be8e1fc2c2d",
        "gas": "0xb0a0",
        "value": "0x0",
        "input": "0x6f8b44b000000000000000000000000000000000000000000000000000000000000002ee",
        "nonce": "0x20c",
        "chainId": "0x8173"
      },
      "additionalContracts": [],
      "isFixedGasLimit": false
    },
    {
      "hash": "0xded436e32ec621ea009b9b98cf01a7a5e8416af8ab9f11f8bedc1e068ae3088c",
      "transactionType": "CALL",
      "contractName": null,
      "contractAddress": "0xca2d7b429248a38b276c8293506f3be8e1fc2c2d",
      "function": "setMaxPerWallet(uint256)",
      "arguments": [
        "2"
      ],
      "transaction": {
        "from": "0x2f85a7ef3947a257211e04cced0efded94f76e98",
        "to": "0xca2d7b429248a38b276c8293506f3be8e1fc2c2d",
        "gas": "0x9481",
        "value": "0x0",
        "input": "0xe268e4d30000000000000000000000000000000000000000000000000000000000000002",
        "nonce": "0x20d",
        "chainId": "0x8173"
      },
      "additionalContracts": [],
      "isFixedGasLimit": false
    }
  ],
  "receipts": [
    {
      "status": "0x1",
      "cumulativeGasUsed": "0x7ff0",
      "logs": [
        {
          "address": "0xca2d7b429248a38b276c8293506f3be8e1fc2c2d",
          "topics": [
            "0x7810bd47de260c3e9ee10061cf438099dd12256c79485f12f94dbccc981e806c"
          ],
          "data": "0x00000000000000000000000000000000000000000000000000000000000002ee",
          "blockHash": "0xc17b20046cf2b3e2fb2b88022219ff364b083b32534a250ab6bb89a122b0ab5f",
          "blockNumber": "0x1755274",
          "transactionHash": "0x6420170c8934ed00252fce9ac9583e6cdb8b701db5575b5203d199d8e4069e91",
          "transactionIndex": "0x1",
          "logIndex": "0x0",
          "removed": false
        }
      ],
      "logsBloom": "0x00000000000000000000000000000000000000000000000000000000000000000000000000000000000000000000000080000000000000000000000000000000000000000000000000000000000000000000000000000000000000000000000000000000000000000000000000010000000000000000000000000004000000000000000000000000000000000000000000000000000000000000000000000000000000000000000000000000000000000000000000000000000000000000000000000000080000000000000000000000000000000000000000000000000000002000000000000000000000000000000010000000000000000000000000000000",
      "type": "0x2",
      "transactionHash": "0x6420170c8934ed00252fce9ac9583e6cdb8b701db5575b5203d199d8e4069e91",
      "transactionIndex": "0x1",
      "blockHash": "0xc17b20046cf2b3e2fb2b88022219ff364b083b32534a250ab6bb89a122b0ab5f",
      "blockNumber": "0x1755274",
      "gasUsed": "0x7ff0",
      "effectiveGasPrice": "0x5eb30f250",
      "from": "0x2f85a7ef3947a257211e04cced0efded94f76e98",
      "to": "0xca2d7b429248a38b276c8293506f3be8e1fc2c2d",
      "contractAddress": null,
      "gasUsedForL1": "0x10",
      "l1BlockNumber": "0x1665cf7"
    },
    {
      "status": "0x1",
      "cumulativeGasUsed": "0x6b94",
      "logs": [
        {
          "address": "0xca2d7b429248a38b276c8293506f3be8e1fc2c2d",
          "topics": [
            "0x97e4f91a4b7e108aff6d29a03d7b9f94705ad90ed51b377784a1943ea32257e7"
          ],
          "data": "0x0000000000000000000000000000000000000000000000000000000000000002",
          "blockHash": "0xa379de47ec52d147818c6826d942cd357dc6803fa741de9b04bca0d4b0fda2c9",
          "blockNumber": "0x1755275",
          "transactionHash": "0xded436e32ec621ea009b9b98cf01a7a5e8416af8ab9f11f8bedc1e068ae3088c",
          "transactionIndex": "0x1",
          "logIndex": "0x0",
          "removed": false
        }
      ],
      "logsBloom": "0x00000000000000000000000000000000000000000000000000000000000000100000000000000000000000000000000000000000000000000000000000000000000000000000000000000000000000000000000000000000000000000000000000000000000000000000000000000000000000000000000000000000000000000000000000000000000000000000000000000020000000000000000000000000000000000000000000000000000000000000000000000000000000000000000000000000080000000000000000000000000000000000000000000000000000002000000000000000000000000000000010000000000000000010000000000000",
      "type": "0x2",
      "transactionHash": "0xded436e32ec621ea009b9b98cf01a7a5e8416af8ab9f11f8bedc1e068ae3088c",
      "transactionIndex": "0x1",
      "blockHash": "0xa379de47ec52d147818c6826d942cd357dc6803fa741de9b04bca0d4b0fda2c9",
      "blockNumber": "0x1755275",
      "gasUsed": "0x6b94",
      "effectiveGasPrice": "0x5eb30f250",
      "from": "0x2f85a7ef3947a257211e04cced0efded94f76e98",
      "to": "0xca2d7b429248a38b276c8293506f3be8e1fc2c2d",
      "contractAddress": null,
      "gasUsedForL1": "0x10",
      "l1BlockNumber": "0x1665cf7"
    }
  ],
  "libraries": [],
  "pending": [],
  "returns": {},
  "timestamp": 1759354856515,
  "chain": 33139,
  "commit": "d8a8ee8"
}